:020000040800F2
:100000000000022085850008AD2900089D2A00080F
:10001000C92A0008CB2A0008CD2A000800000000E9
:10002000000000000000000000000000CF2A0008CF
:10003000D12A000800000000D32A0008D52A0008B1
:10004000D5850008D5850008D5850008D585000828
:10005000D5850008D5850008D5850008D585000818
:10006000D5850008D5850008D5850008D585000808
:10007000D5850008D5850008D5850008D5850008F8
:10008000D5850008D5850008D5850008D5850008E8
:10009000D5850008D5850008D5850008D5850008D8
:1000A000D5850008D5850008D5850008D5850008C8
:1000B000D5850008D5850008D5850008D5850008B8
:1000C000D5850008D5850008D5850008112B0008C6
:1000D000D5850008D92A0008D5850008D5850008EF
:1000E000D5850008D5850008D5850008D585000888
:1000F000D5850008D5850008D5850008D585000878
:10010000D5850008052B0008D5850008D585000891
:10011000D5850008D5850008D5850008D585000857
:100120001D2B0008D5850008D5850008D585000859
:10013000D5850008D5850008D5850008D585000837
:10014000D5850008D5850008D5850008D585000827
:10015000292B0008D5850008D5850008D58500081D
:10016000D5850008D5850008D5850008D585000807
:10017000D5850008D5850008D58500080000000059
:08018000D5850008D5850008B3
:1001900010B5054C237833B9044B13B10448AFF3C1
:1001A00000800123237010BDCC0600200000000059
:1001B000D885000808B5034B1BB103490348AFF3CA
:1001C000008008BD00000000D0060020D88500088F
:1001D00010F8012B11F8013B012A28BF9A42F7D0F1
:1001E000D01A7047034613F8012B002AFBD1181AC6
:1001F000013870470000000000000000000000000F
:1002000001F0FF01102A2BDB10F0070F08D010F8C7
:10021000013B013A8B422DD010F0070F42B3F6D1CB
:10022000F0B441EA012141EA014122F007047FF0E4
:1002300000070023F0E80256083C85EA010586EA3B
:10024000010685FA47F5A3FA87F586FA47F6A5FA77
:1002500087F68EB9EED1F0BC01F0FF0102F0070283
:1002600032B110F8013B013A83EA010313B1F8D12E
:100270000020704701387047002D06BF354603380F
:10028000073815F0010F07D1013015F4807F02BF48
:10029000013015F4C03F0130F0BC0138704700BF99
:1002A0007BB972B90029BEBF00204FF0004106E0C3
:1002B00008BF00281CBF6FF000414FF0FF3000F076
:1002C000A5B9ADF1080C6DE904CE002909DB002BBE
:1002D0001ADB00F035F8DDF804E0DDE9022304B0B4
:1002E0007047404261EB4101002B1BDB00F028F816
:1002F000DDF804E0DDE9022304B0404261EB410196
:10030000524263EB43037047524263EB430300F0F6
:1003100017F8DDF804E0DDE9022304B0404261EBA8
:1003200041017047524263EB430300F009F8DDF8E6
:1003300004E0DDE9022304B0524263EB430370475B
:100340002DE9F047089E04468846002B4BD18A428F
:10035000154667D9B2FA82F24AB1C2F1200701FA12
:1003600002F320FA07F7954047EA030894404FEA62
:10037000154E230CB8FBFEF71FFA85FC0EFB178801
:1003800043EA084307FB0CF1994209D9EB1807F13E
:10039000FF3080F01B81994240F21881023F2B44CC
:1003A0005B1AA4B2B3FBFEF00EFB103344EA034425
:1003B00000FB0CFCA44509D92C1900F1FF3380F097
:1003C0000781A44540F2048102382C4440EA0740EA
:1003D000A4EB0C0400271EB1D4400023C6E900435F
:1003E0003946BDE8F0878B4209D9002E00F0EB803A
:1003F0000027C6E9000138463946BDE8F087B3FA60
:1004000083F7002F47D18B4202D3824200F2FA8059
:10041000841A61EB030301209846002EE0D0C6E960
:100420000048DDE702B9FFDEB2FA82F2002A40F0AE
:100430008F80491B4FEA154E1FFA85F80127B1FB43
:10044000FEFC230C0EFB1C1143EA014308FB0CF1DC
:10045000994207D9EB180CF1FF3002D2994200F211
:10046000CD808446591AA3B2B1FBFEF00EFB1014E6
:1004700043EA044408FB00F8A04507D92C1900F111
:10048000FF3302D2A04500F2B6801846A4EB080460
:1004900040EA0C409FE7C7F1200CBB4022FA0CFE5B
:1004A0004EEA030E01FA07F420FA0CF521FA0CF3D8
:1004B0004FEA1E482543B3FBF8F92C0C08FB19330F
:1004C0001FFA8EFA44EA034309FB0AF49C4202FA3B
:1004D00007F200FA07F10BD91EEB030309F1FF3015
:1004E00080F087809C4240F28480A9F10209734425
:1004F0001B1BADB2B3FBF8F008FB103345EA034415
:1005000000FB0AFAA24508D91EEB040400F1FF33F0
:100510006BD2A24569D90238744440EA0940A0FB75
:100520000289A4EB0A044C45C2464B4654D351D031
:10053000002E69D0B1EB0A0564EB030404FA0CFC4D
:10054000FD40FC404CEA0505C6E90054002747E79A
:10055000C2F1200320FA03F7954001FA02F021FAD4
:1005600003F34FEA154E3843010CB3FBFEF71FFAB5
:1005700085F80EFB173341EA034107FB08F38B4272
:1005800004FA02F407D9691807F1FF3C2FD28B4215
:100590002DD9023F2944CB1A81B2B3FBFEF00EFBEA
:1005A000103341EA034100FB08F38B4207D9691875
:1005B00000F1FF3C17D28B4215D902382944C91AE1
:1005C00040EA07473BE73746304609E70746E7E694
:1005D0001846FBE64145ABD2B8EB020A69EB0E02C6
:1005E00001381346A4E76046E9E7184695E76746F1
:1005F000D1E781467CE702382C4447E7ACF1020C96
:100600002B442FE7384608E73746E9E6704700BF36
:1006100053B94AB9002908BF00281CBF4FF0FF3169
:100620004FF0FF30FFF7F2BFADF1080C6DE904CEDB
:10063000FFF786FEDDF804E0DDE9022304B0704731
:10064000034B1A1803EB80004168107A4B68184777
:1006500010070020064B1A5C42B9012119541A18E0
:1006600003EB80004368107A196808470020704740
:100670001007002030B4054C251804EB80004468B6
:10068000287AA468A44630BC604700BF1007002049
:1006900030B4054C251804EB80004468287AE468DF
:1006A000A44630BC604700BF10070020044B10B4C4
:1006B0001C1803EB80004368207A1B6910BC1847A4
:1006C0001007002042884378007843EA022140EA7C
:1006D000012070470B0A0A0C0170090E43708270EA
:1006E000C1707047024400F8011B9042FBD1704773
:1006F0001B4A136830B563B104689C4207D1556842
:1007000083689D4203D194684569AC4220D000249F
:1007100000E001241369CBB10568AB4207D15569EC
:1007200083689D4203D1956943699D4215D06CB998
:1007300002290CBF0020122030BD02EB04118A896F
:10074000B2F5807F14BF00201020F5E70020F3E70A
:1007500000240029F1D01020EEE70124F9E700BFC2
:10076000EC0600201F4AF0B5136805689D4207D1CA
:1007700056688468A64203D147699668B74221D07B
:100780001469AC4207D157698668B74203D19769AB
:100790004669B74221D00BB10CBB01231F01D4190C
:1007A000D5510026856840696560A060A68189B939
:1007B00002EB03118F890137BDB202EB0312581C03
:1007C0009581F0BD00230029F2D002EB031CBCF898
:1007D0000C4024B94FF48075EFE70123F3E70020C4
:1007E000EFE700BFEC0600200138012818D80D49BA
:1007F000020188188389B3F5807F06D14FF0000C81
:10080000A0F80CC0002088507047002BFAD003F1EC
:10081000FF3C1FFA8CF38381002BF3D0002070473C
:1008200002207047EC060020436902399A1E8A4272
:1008300083BF4289806A01FB020000207047C36ABF
:1008400002680433490A5089B1FBF0F1186830B1ED
:10085000814202D3091A0833F8E758680844704700
:10086000026810B552B111460B4611F8014B202C0D
:100870000CD93A2CF8D1511C8B4202D04FF0FF30EA
:1008800005E01278302AF9D101330360002010BD51
:1008900038B50D46044618B9092000242C6038BD2F
:1008A0000368002BF8D01A78002AF5D08188D88800
:1008B0008142F1D15878FFF7C3FE10F00100EBD16F
:1008C0002468EBE701380A4411F8013B00F8013FC6
:1008D0009142F9D17047CA7E8B7E032843EA022CED
:1008E00001BF487D0A7D42EA00224CEA024C604684
:1008F0007047C2F307238A76CB760078032801BFBE
:10090000120C0A75120A4A757047F8B5056A002379
:100910000C46681E19462E2610F8012F202A01F1D8
:1009200001010AD0052A08BFE522092902BFE718FC
:1009300001337E72E71801337A720B29ECD123441C
:1009400000275F72E87A207205F11C00FFF7BAFEFB
:10095000206005F11600FFF7B5FE050CE080A580CC
:10096000F8BDF8B5C56A00F13007044601232A46F0
:1009700039464078FFF78CFEA0B9236AA269E0707F
:10098000E81A904201D30020F8BDA678012EFAD9CA
:10099000A16960780D4401232A463946FFF778FEA5
:1009A000013EF3E70120EFE7C3780BB1FFF7D9BFB2
:1009B00018467047C36A8B4270B506460D4612D082
:1009C000FFF7F2FF044660B92A46012306F1300121
:1009D0007078FFF74FFE00281CBF4FF0FF35012451
:1009E000F562204670BD0024FBE7000000234FF0B5
:1009F000FF3210B5C370C2620446FFF7DBFF30BBA5
:100A000094F82F0294F82E124AF6552341EA002C4E
:100A10009C451ED194F83020E92A05D0206B104B5C
:100A200000F0FF11994216D104F16600FFF74AFE6B
:100A300020F07F420B4882420FD004F18200FFF782
:100A400041FE094CA04214BF0220002010BD04202A
:100A5000FCE70320FAE70220F8E70020F6E700BFF2
:100A6000EB00900046415400464154332DE9FF47C6
:100A700000230B600F461546FFF7F2FE061EC0F27C
:100A80004581A64850F82640002C00F041813C608A
:100A9000217805F0FE0771B16078FFF7D1FDC1073D
:100AA00009D4002F00F0368110F0040000D00A2095
:100AB00004B0BDE8F0870022F0B222706070FFF74A
:100AC000C9FDC20700F128810FB14307EFD400210F
:100AD0002046FFF78BFF022840F0FF8004F5FB77EC
:100AE000002517F8040C10B13846FFF7EBFD4DF860
:100AF00025000135042D07F11007F2D100275DF81C
:100B00002760002E00F0E08031462046FFF76EFFA0
:100B1000012800F2DA8094F83C0094F83B8048EA1F
:100B20000029B9F5007F40F0DC8094F847A094F8E4
:100B3000463053EA0A2704D104F15400FFF7C2FDFE
:100B4000074694F840A0A7610AF1FF31012984F813
:100B500002A000F2C68094F83D801FFA88F26281FC
:100B6000002A00F0BE8008F1FF3515EA080F40F0BA
:100B7000B88094F8420094F8413043EA002919F013
:100B80000F0FA4F8089040F0AC8094F8441094F84B
:100B9000432052EA012003D104F15000FFF792FDF7
:100BA00094F83F5094F83EC05CEA052300F0998029
:100BB00007FB0AFE03EB191171448842C0F09180D3
:100BC000401AB0FBF8F5002D00F08B804FF6F5725F
:100BD00095428CBF4FF0030A4FF0020A40F6F578B9
:100BE000454598BF4FF0010A334402353144BAF10C
:100BF000030F6561E6612362A16276D194F85B1010
:100C000094F85A0050EA01236BD1B9F1000F68D172
:100C100004F15C00FFF756FDAD00606205F2FF19BC
:100C2000B7EB592F5DD34FF0FF378025BAF1030F93
:100C3000C4E9037725712FD194F861C094F860203E
:100C400042EA0C23012B27D1711C2046FFF7B2FE8C
:100C500010BB94F82F6294F82E1220714AF6552793
:100C600041EA0620B84217D104F13000FFF72AFD0F
:100C70002B4DA84210D104F50570FFF723FD294A3A
:100C8000904209D104F50670FFF71CFD206104F5C0
:100C90000770FFF717FDE060234F244E3868338854
:100CA0003D6984F800A0844208BF002003F10103DD
:100CB00099B208BF3860AC423180E1804FF000004B
:100CC0007FF4F6AE3861F3E603200137042F7FF49A
:100CD00016AF042805D10120EAE60428FBD001283C
:100CE00001D90D20E4E6002615E7B9F1000FF8D090
:100CF0007344BAF1020F63624FEA45031BBF5B19ED
:100D000005F001051D4605EB530587E70B20CFE6EF
:100D10000C20CDE63846CBE60320C9E6E8060020E5
:100D20005252614172724161EC0600200C070020B2
:100D300001292DE9F04705460C46174672D943694B
:100D40008B426FD9017802293FD0032950D0012965
:100D500068D1026A04EB540802EB5821FFF72AFE1F
:100D6000064638BBC8F3080005F1300914F0010449
:100D70001FBF19F8003003F00F013B0103F0F0032F
:100D800014BF0B43FBB209F800302A6A012608F1B0
:100D9000010AEE7002EB5A212846FFF70BFE0646C9
:100DA00040B9CAF3080044B1C7F3071709F8007047
:100DB0000124EC703046BDE8F08719F80040C7F315
:100DC000032724F00F031F43F0E7066A06EB142104
:100DD000FFF7F0FD06460028ECD1630005F1300076
:100DE00003F4FF7142184754C7F307275770DFE732
:100DF000016A01EBD411FFF7DDFD06460028D9D1C9
:100E0000A20005F1300C02F4FE78E0444046FFF702
:100E100059FC27F0704400F0704121434046FFF731
:100E200059FCC5E70226C5E70129F8B505460C4679
:100E300052D9436999424FD20178022929D0032916
:100E400038D0012948D1026A04EB540602EB56213E
:100E5000FFF7B0FD10B14FF0FF30F8BDC6F308004A
:100E600028442B6A771C03EB572190F83060284602
:100E7000FFF7A0FD0028EED1C7F3080C6544E30797
:100E800095F8305046EA05204CBF0009C0F30B002E
:100E9000E3E7026A02EB1421FFF78CFD0028DAD1A8
:100EA000670007F4FF7030352E182D5C737845EA23
:100EB0000320D2E7016A01EBD411FFF77BFD002884
:100EC000C9D1A40004F4FE7E05F130007044FFF7A0
:100ED000F9FB20F07040C0E70120BEE72DE9F041AA
:100EE000804605680F4671B9EE68F6B16869B04290
:100EF00098BF0126344669690134A14218D8012EF1
:100F000015D8002409E02846FFF78EFF0128044683
:100F100037D9431C04D14FF0FF342046BDE8F0819F
:100F20006B698342F9D83E46E4E70126E2E70224F2
:100F30002146D8F80000FFF777FF30B1012820D014
:100F40000130E8D0B442D6D1DBE74FF0FF32214682
:100F50002846FFF7EDFE90B957B9D5E904C2971EB0
:100F6000BC45EC600FD9287940F001062E71D4E71A
:100F7000224639462846FFF7DBFE0028EDD001283F
:100F8000C9D00124C9E70CF1FF332B61EBE7F8B5B9
:100F90000D46012D074611462CD904686369AB4202
:100FA00028D92AB14FF0FF322046FFF7C1FE30B9F1
:100FB00029463868FFF738FF064608B90020F8BD13
:100FC000012817D0431C17D0002229462046FFF7DE
:100FD000AFFE0028F3D1D4E90402911E884205D265
:100FE0002579013045F0010320612371B242354675
:100FF000DED8E3E70220E2E70120E0E7F8B50446A7
:10100000FFF7D2FC0546002843D12378032B38D1C3
:101010002779012F35D104F1300601464FF40072D3
:101020003046FFF75FFB552052224FF0610C412301
:1010300084F82E02AA21722084F8302084F831200E
:1010400084F832C084F8333084F8163284F817C23A
:1010500084F82F1284F8140284F81502216904F52B
:101060000670FFF737FBE16804F50770FFF732FB06
:10107000E26960780132E2623B463146FFF708FBE5
:101080002571002211466078FFF710FB003018BF71
:101090000120F8BD70B585680468002306464361E9
:1010A00095B92178022901D9606A70B9208908B9F7
:1010B000022070BD616AF161F269B561002AF7D062
:1010C000303434620020F4E728466289054662B96C
:1010D00029463068FFF7A8FE431C05460BD00128BF
:1010E000E6D963699842F3D3E2E701462046FFF769
:1010F0009BFBF061E0E70120DBE7C3692DE9F047E6
:1011000005460F46ABB1426902F12008B8F5001F51
:101110000FD2C8F308090468B9F1000F4ED18169F4
:101120000133C36139B92089B0EB581F46D800217B
:10113000E96104200BE06089461E16EA58233DD180
:101140002046FFF771FE0128064602D80220BDE8BE
:10115000F087421C01D10120F9E76169814227D85B
:10116000002FE4D0A9692846FFF7B8FE06460028FC
:1011700037D00128EAD0431CEDD02046FFF714FCFD
:1011800007460028E7D101464FF4007204F1300011
:10119000FFF7A8FA31462046FFF746FB4FF0010A59
:1011A000E062B4F80AC067450FD3E36ADF1BE76269
:1011B000AE6131462046FFF737FBE86130344C44DE
:1011C000C5F814802C620020C1E784F803A02046F3
:1011D000FFF7C7FB0028BED1E26A01320137E262A5
:1011E000DFE70720B3E700002DE9F843076804466E
:1011F0000D4611F8013B2F2BFAD05C2BF8D00020C4
:10120000A06029781F295BD9DFF8508104F12406FA
:101210000B2220213046FFF765FA002205F1FF3C42
:10122000114608201CF8013F202B01F101010DD9C6
:101230002F2B01D05C2B4BD16818411B10F8019B60
:10124000B9F12F0FF9D0B9F15C0FF6D00D44002A97
:1012500052D094F82410D4F80090E52904BF052159
:1012600084F82410212B34BF0423002384F82F306A
:101270002046FFF70FFF002842D1E1694846FFF7FB
:1012800099FB00283CD1236A1A78002A43D0D97AE6
:1012900001F03F02A271D97A09070CD403F10B0CBB
:1012A000314613F8012B11F801EB9C45A2EB0E021D
:1012B00024D0002AF5D000212046FFF71EFFDAE7F0
:1012C000802584F82F502046BDE8F843FFF7E2BEA2
:1012D0002E2B34D090420FD913F0800F18BF803BD3
:1012E000DFF87C9018BF18F8033019F801EFBEF151
:1012F000000F29D07345F8D106200AE0002ADAD180
:1013000094F82F6048B1042803D116F0040F08BFE9
:101310000520BDE8F8830420F2E77207F9D4A0792C
:10132000C3060AD563693878C3F3080E07F13001A4
:101330007144FFF7D0FAA06068E70520E9E70B28C1
:10134000DAD008220B206DE7A3F1610EBEF1190F70
:1013500001D8203BDBB2B354013263E7FC850008BF
:101360007B86000870B505460668FFF793FE20BB34
:10137000E9693046FFF71EFBF8B92B6A1878E528B3
:1013800014D1E9693046FFF715FB044660B9014600
:101390002022286AFFF7A6F905F124010B22286A0A
:1013A000FFF790FA0121F170204670BD0028E8D0C7
:1013B00001212846FFF7A1FED9E7042814BF0446FF
:1013C0000724F1E77FB5CDE9001004A8164640F8E0
:1013D000041DFFF745FA051E1FDB124951F8254091
:1013E0005CB1114B1A681869944204BF00221A605C
:1013F0000022844208BF1A612270019808B10024BB
:10140000047041F8250030B1012E08D1002201A955
:101410006846FFF72BFB04B070BD0B20FBE70020F4
:10142000F9E700BFE8060020EC0600202DE9F047B0
:1014300090B0904601910446002800F0B98002F077
:101440003F052A4603A901A8FFF710FB074600281D
:1014500065D110AE039B46F8303D01993046FFF749
:10146000C3FE58B99DF93F0000285FDB15F03E0F21
:1014700014BF012100213046FFF73AF918F01C0F84
:1014800060D0002854D0042849D16E490B681BB1A4
:101490000869002840F086803046FFF763FF002887
:1014A0003DD145F00805280759D500F07FFD82465B
:1014B00001460C980E30FFF70DF90C985146163086
:1014C000FFF708F90C99DDF80C902022CA72DDF8BC
:1014D00030A099F800005146FFF7FDF90022804640
:1014E0004846FFF706FA0C9B0398002201211A7761
:1014F0005A779A77DA77C170B8F1000F2FD0D0F809
:101500002C9041463046FFF742FD40B949460398CA
:10151000FFF750FA039A08F1FF31D160F8B10027C4
:1015200027600746384610B0BDE8F0870620A5E7DB
:101530009DF8162012F0110F38D118F0040FB2D018
:101540000820ECE70028EAD19DF816905FEAC9620E
:101550002AD418F0020F02D05FEAC97326D42807F4
:10156000039B0C9AD86A606248BF45F0400515F0AD
:10157000FE0FA26214BF012100213046FFF7F2F8EE
:101580002061B8B90220CAE72068FFF74DFC0128A6
:101590000146A5EB060503D9421C34D1012035E0F4
:1015A000022033E01220BAE70420B8E70720B6E7AC
:1015B0000927B7E7039EDDF830A030785146FFF7E2
:1015C0008AF9A0600AF11C00FFF77CF804F13009E9
:1015D000B6F806C0E0600021E1622660A4F804C00D
:1015E000257561752162A1614FF400724846FFF7CD
:1015F00079F8AB0696D5E568002D93D00399A561DF
:101600004B89A1685E02AE42BED30020E161002892
:1016100085D1C5F30800002884D0DDF80C80404651
:10162000FFF702F90028ADD000EB5522226201231A
:10163000494698F80100FFF71DF800283FF472AF03
:1016400001206CE7EC0600202DE9F04F9B4685B0A9
:1016500000238946CBF8003003A904461546FFF75E
:1016600017F9064610BB667D06BB207DC20740F118
:101670009780E168A769CF1BAF4228BF2F4604F1CE
:10168000300A9FB1A169C1F30802002A7AD1039DF3
:10169000B5F80A8008F1FF3C1CEA5123019319D1E7
:1016A00041B9A068012810D802266675304605B0F9
:1016B000BDE8F08FE06A18B12046FFF7C0F8F1E707
:1016C000E1692068FFF7B0FBECE7431C01D101267C
:1016D000EBE7E0610398E1690090FFF7A5F80028C7
:1016E000E2D001997D0A01EB00082DD00098019A03
:1016F000418900982A448A4288BF019A407888BF6D
:101700008D1A2B4642464946FEF7B4FF0028DED12B
:1017100094F91430002B0BDA216AA1EB080EAE45C8
:1017200006D24FF40072514609EB4E20FFF7CAF87B
:101730006D02A269DBF800002A442844A261A94492
:10174000CBF800007F1B9CE7226A424518D094F931
:101750001430002B0BDA0098012351464078FEF735
:1017600097FF0028B3D1227D02F07F012175039DF0
:101770000123424651466878FEF77CFF0028A6D137
:10178000C4F82080A369C3F30801C1F50075BD4208
:1017900028BF3D462A4651444846FFF793F8C8E71C
:1017A000072683E7F7B501A90446FFF771F8054658
:1017B00000283BD1237D5A0638D51B060CD501984D
:1017C000226A4078012304F13001FEF761FF80BBFB
:1017D000217D01F07F02227500F0E8FB616A074677
:1017E0000198FFF7E7F8054600BBA66A96F80BC01C
:1017F0004CF02003F372A26820683146FFF779F8B5
:10180000E16806F11C00FEF765FF394606F1160097
:10181000FEF760FF0198B574F5740125C570FFF7F8
:10182000EDFB0546207D20F040012175284603B0E0
:10183000F0BD0125FAE713B50446FFF7B3FF48B939
:1018400001A92046FFF724F820B92069FEF7CCFF54
:1018500000B9206002B010BD30B58FB00D460190C8
:10186000002202A901A8FFF701F9044688B90199ED
:1018700002A8FFF7B9FC044658B99DF93730002B90
:101880000ADB35B16872099818B1294602A8FFF73A
:101890003CF820460FB030BD0624FAE770B5A2B080
:1018A000019022A840F8881DFEF7DAFF022203A962
:1018B00001A8FFF7DBF8002874D122AC039B44F8A1
:1018C000603D01992046FFF78FFC00286AD19DF802
:1018D000570010F0A00F67D102212046FEF708FF45
:1018E00000285FD1129915220B3104A8FEF7EAFFF8
:1018F000214616A83022FEF7E5FF009916A8FFF74B
:1019000073FC48B9189A0C998A4203D11B9D0F9E0B
:10191000B54203D0082045E0042843D116A8FFF7BC
:1019200021FD00283ED11E9D132205F10D000DF171
:101930001201FEF7C7FF9DF8104044F02003039CFE
:10194000EB720126E670E87AC3061DD50C9A189949
:101950008A4219D029462078FEF7BDFF014620466D
:10196000FEF762FF014608B32046FFF723F8C8B927
:10197000039890F851502E2D06D1189A00F150017D
:10198000FEF7B7FF039BDE700A9C11992046FFF714
:1019900011F838B9129EE52001223070E2700398E8
:1019A000FFF72CFB22B070BD0620FBE70220F9E711
:1019B00030B5104B5D7A05F0FF04CDB993F809C03E
:1019C0005D7A03F80C4003EB850CCCF80400587AE0
:1019D000184402725A7AD5B2681CC2B230355A72B3
:1019E0000D703A232F254B708D70CC70204630BD82
:1019F0000120FCE7100700200022FFF7D9BF0000FC
:101A00002DE9F0414FF0C044E02323804C4B0022ED
:101A100007210F251B264FF00A0C0D203C271A80AA
:101A20004FF04A0819804FF00E0E1D8018801E805E
:101A30007820A3F800C01F8009271880A3F8008031
:101A40001980A3F800E01F801E80E1271E261E805B
:101A50004FF0060E1D804FF0240827801226222703
:101A60001A801F80A3F80080A3F800E04FF0470819
:101A70001E80362619801E80A3F80080A3F80080FF
:101A8000A3F800E0A3F800C019804FF0370C302114
:101A90001980A3F800C01D80C02525804FF0100ECE
:101AA0004FF0C1084121C525A3F800E0A3F800E0EC
:101AB000A4F80080198025801A801F8080271F804D
:101AC0004FF0B00826804FF03A0C68264FF0550EC4
:101AD000B1211127B4251E80A4F800C0B626A3F8B2
:101AE00000E04FF0420CA4F800804FF0B70E1A80CF
:101AF0002180A3F8008002211F804FF0C6082580B6
:101B0000E9251980268019805126A3F800C0A92153
:101B1000A4F800E04FF0820CA3F8008025801A8022
:101B20002C25F722228019801E801D80A3F800C07A
:101B3000278004F0C3F829232380BDE8F08100BF8B
:101B40000000046070B54FF0C0452A242C800D4C75
:101B5000C0F30F262680C0B2C1F30F26C9B2208081
:101B600026802B202180C2F30F26C3F30F21D2B28F
:101B7000DBB2288026802280218023802C242C80A8
:101B800070BD00BF00000460F8B51D46154B164639
:101B90001A88D400671EBAB2141853181BB20A462A
:101BA00021B2FFF7CFFF1048104F00EBC602104ED6
:101BB00002F108000124ADB2002192F800C004FA3D
:101BC00001FE1CEA0E0F01F1010114BFAE46B7F889
:101BD00000E0A6F800E00829EFD101329042EBD1F5
:101BE000F8BD00BF00040020000000201C070020FA
:101BF000000004602DE9F843DFF8348005460E4606
:101C00001F4614466FEA020914F8012B0AB9BDE811
:101C1000F883B8F8000009EB0403C10011FB036C62
:101C20000FFA8CF03B462946FFF7AEFFECE700BF0A
:101C300000040020002210B540F23F13044640F299
:101C4000DF111046FFF77EFF034A4FF41633013BC6
:101C50001480FCD110BD00BF000004602DE9F041EC
:101C6000144C154B266815481D6800AF214601F03D
:101C700091F93146124801F08DF90F49114801F0F0
:101C800089F92946104801F085F9104800F0FAFD5D
:101C900004F09FFC03F0ACFF0D48A0F54F6100225B
:101CA00084600A6086F30888AC46BD46BDE8F04112
:101CB000604700BF00C0000804C000085D8800083D
:101CC000718800088D8800089F880008A84D0020B2
:101CD00000ED00E038B507490546FFF7BDFD294690
:101CE00004460246044801F055F9002C0CBF20467A
:101CF000032038BD200700204488000800000000B1
:101D000030B56FA3D3E90023A1B020A860E9202358
:101D100000F082FF05460FCD03AC0FC40FCD0FC4FA
:101D20002B684F4A2360502103AB0CA801F058FFE9
:101D30000CA94C4801F02EF901224B494B48FFF702
:101D400041FB002861D04FF4FC63494A00214FF465
:101D50009070FFF74FFF6FF01F03464A4FF4A071DA
:101D60004FF49070FFF746FF434B444A002140F286
:101D70002910FFF73FFF6FF01F03414A422140F255
:101D80002910FFF737FF4FF4FC630CAA00214FF432
:101D90009970FFF72FFF4FF4FC633A4A002124208B
:101DA000FFF728FF384B394A5F212420FFF722FF35
:101DB0004FF4FC63364A00212D20FFF71BFF012260
:101DC0000221344804F000FCFFF748FFFEE73248E8
:101DD00001F054F921464FF4FC63304A1220FFF71A
:101DE00009FF2F4800F0EEF92E492D4800F086F942
:101DF00030B14FF4FC632C4A21461420FFF7FAFE61
:101E00004FF4FC63294A0021CFE72548FFF762FF22
:101E100004460028DBD02648FFF75CFF0546002873
:101E2000EED1244801F02AF929464FF4FC63224AF6
:101E30001220FFF7DFFE1E4800F034FA1F491C484D
:101E400000F05CF930B14FF4FC63174A29461420C6
:101E5000FFF7D0FE052003F031FFD1E7AFF300809C
:101E60008B860008B08600080408002008080020BF
:101E7000B5860008DC86000818C6FFFFE486000867
:101E8000ED8600080587000800F8FFFF11870008AD
:101E90002488000800000240398700085B8700089A
:101EA0007C8700088A870008958700081688000844
:101EB000A6870008B6870008E087000809880008A0
:101EC00075735F5F0000000007B5009313460A4674
:101ED0000146044804F04FFE003018BF012003B053
:101EE0005DF804FBA84D002007B5009313460A4691
:101EF0000146044804F01DFF003018BF012003B064
:101F00005DF804FBA84D002008B5034805F055FA1C
:101F1000043818BF012008BDA84D00200146014823
:101F200005F0B4B9A84D0020704708B5FFF7FCFFD5
:101F300008BD704708B5FFF7FCFF08BD704708B53E
:101F4000FFF7FCFF08BD07B501238DF8073000F04F
:101F50002FF808B98DF807009DF8070003B05DF869
:101F600004FB000008B5FFF7EEFF01280CD107487D
:101F700005F072F938B94FF40061044805F098F99A
:101F8000003018BF012008BD0120FCE7A84D00204B
:101F900008B503490348FFF72FFD034B187008BD30
:101FA000040800207C8A0008380A002000207047BE
:101FB00008B50821034804F001FBB0FA80F040099D
:101FC00008BD00BF000C024000F17843B3F5804F1C
:101FD00035D3A3F58042B2F5804F32D3A3F500414B
:101FE000B1F5804F2FD3A3F5404CBCF5804F2CD3D7
:101FF00000F1774000F57F03B3F5803F27D31B49FD
:1020000000F57E028A4224D900F57C038B4222D956
:1020100000F57A0C8C4520D900F578028A421ED949
:1020200000F576038B421CD900F5740C8C451AD947
:1020300000F57200884294BF0B20002070470020FA
:10204000704701207047022070470320704704202A
:10205000704705207047062070470720704708200A
:102060007047092070470A20704700BFFFFF01003A
:102070002DE9F74302AF002347F8043DDFF838901D
:102080000B6005460E46102440F2FF38294640F208
:10209000FF323B464846FFF7D7FA019932680A44B7
:1020A0000D44326028B9414503D1013CA4B2002C53
:1020B000ECD103B0BDE8F0833C0A00202DE9F041EB
:1020C0000E4617460C46A0EB0108A31B9F4201D801
:1020D00000250DE008EB0401002334F8022B012059
:1020E00004F000F805460028EFD0034800F052FF46
:1020F0002846BDE8F08100BF4B89000838B50D4681
:1021000005490446FFF7A8FB00B1FEE72946204633
:10211000BDE83840FFF7C2BB5C07002030B593B084
:102120000C4605461F4800F0A9FF2B4600941E4AA6
:102130003C2103A800F0BAFF00214FF0FF3303AAAF
:102140001B20FFF757FD194BF322DA602846FFF7F3
:102150003BFF0546164805602046FFF735FF154C46
:102160000130411B2160144C00230222C4E90251BA
:10217000204612492360226104F05EF80F490546AB
:10218000204604F059F8034650B9014603AA1B2023
:10219000FFF730FD0A4800F071FF284613B030BD4C
:1021A0006325FAE7F2890008058A0008003C02402E
:1021B0004C0700205007002038070020540700205B
:1021C000208A00082DE9F04129490446FFF744FB25
:1021D000002845D1012221462648FFF727F900288B
:1021E00040D1254800F0D6FE03F036FF28B1234841
:1021F00000F0D0FE0220BDE8F08121492148FFF720
:102200008DFF08B12048F3E71E4D204E204FDFF828
:1022100090801E493846FFF72BFF32683946284622
:10222000FFF74CFF04460028E4D12B4642461E210E
:10223000184800F03BFF21464FF0FF33154A1B20A2
:10224000FFF7D8FC34682544002CE2D10948FFF799
:10225000F2FA03F013FF104800F010FF2046CAE71F
:102260000320C8E70D4800F095FE0120C3E700BF3A
:102270005C0700203C0A0020B9880008D7880008C5
:1022800000000E0800C00008EC8800085807002075
:102290009E0C0020800C00200A8900082989000873
:1022A000FA880008F8B53D490446FFF7D5FA00283A
:1022B0006DD1012221463A48FFF7B8F8002868D1CD
:1022C000384800F067FE03F0C7FE20B1364800F042
:1022D00061FE0220F8BD35493548FFF71FFF08B100
:1022E0003448F4E7324D344E344F354C30462146B5
:1022F000FFF7BEFEC5F1006303F54040B0F5A07FD7
:1023000030D929462F4800F045FE2B462E4A1E2183
:10231000384600F0CBFE3A4600211B204FF0FF3339
:10232000FFF768FC226831462846FFF7C7FE002801
:10233000CFD124682544002CD7D11948FFF77BFA68
:1023400003F09CFE2946214800F024FE05F1784167
:10235000A1F540411E4800F01DFE1E4800F08EFE13
:102360002046B7E729461C4800F014FE21681B48A8
:102370004FF4A0739942C4D903F01F0213F806C0AA
:1023800050F8222082EA0C029A550133F2E703202A
:10239000A0E7134800F0FEFD01209BE75C0700204A
:1023A0003C0A0020B9880008D788000800000E0801
:1023B00000C00008EC8800089E0C0020800C002063
:1023C000580700206A890008FA880008A0890008D8
:1023D000C1890008D4890008768900080404002017
:1023E0002989000830B595B0102200210AA800F014
:1023F00021FD1422002103A800F01CFD00241D4B28
:1024000001941A6C42F080501864196C01F08055E8
:102410000195019B184B02941A6842F480401860A1
:10242000196801F4804502954FF0010C029B4FF4AE
:10243000A8714FF480330820CDE908C30225CDE907
:10244000100107234FF4800208A8CDE90E52139320
:10245000129504F0C1F80F22059405214FF4A05401
:1024600003A8CDE90325CDE9064404F065FA15B0CB
:1024700030BD00BF003802400070004080B54FF012
:1024800010098EB00024834D03F0ECFBFFF7AAFF88
:102490004A46002108A800F0CDFC01942B6B43F0C4
:1024A00080002863296B01F080020192019B029455
:1024B0002E6B46EA09072F632B6B03EA0900029093
:1024C000029B0394296B41F002022A632E6B06F0F3
:1024D00002070397039B04942B6B43F008002863C7
:1024E000296B01F008020492049B05942E6B46F0C0
:1024F00004072F632B6B03F004000590059B0694E3
:10250000296B654841F001022A632E6B06F0010732
:1025100006970EAE069B082346F81C3D314603F095
:10252000D9FE01274FF0020831465C480994CDE9F5
:10253000078703F0CFFE3A464146584804F044F876
:10254000314657480997CDE9079703F0C3FE314656
:1025500054480994CDE9077703F0BCFE224639467A
:10256000504804F031F82146182208A800F062FC17
:102570004D48CDF824804FF0204101F582724FF490
:10258000805C0523C0E90124016022463146C0E990
:102590000AC40793C0E90594C0E90344C0E90744AD
:1025A0004462C0E90C4484634464CDE90B7705F0D0
:1025B000C1F83E4F3E4874604FF47A71C7E900019C
:1025C00040F2E7323846FA60BC60079405F040F903
:1025D00031463846CDE9074405F054F907942E6B8F
:1025E00046F480032B632D6B05F4800722462146B9
:1025F00007973820079B03F087FB382003F0B8FBD0
:10260000224621463B2003F07FFB3B2003F0B0FB3A
:1026100022462146442003F077FB442003F0A8FB28
:1026200022462146452003F06FFB452003F0A0FB26
:1026300020492148214A8461C0E90014C0E90444CA
:10264000C0E902441E484FF4E1364FF00C09C0E9DE
:102650000026C0E902440461C0E90594C46105F0A4
:1026600083FAFFF795FCFFF7CBF92046FFF7E2FA74
:10267000144800F003FD214620464FF4FC63124A43
:10268000124CFFF7B7FAFFF73BFB204600F082FC45
:10269000FBE700BF00380240000C0240000002408F
:1026A0000008024000040240DC4C00206C4D002079
:1026B00000100040002C0140A84D002000100140F7
:1026C0002C4D0020368A00084A8A0008578A0008E4
:1026D00010B5064C01232370FFF716FC18B92278B9
:1026E00002F0FE002070207810BD00BF840400209E
:1026F00010B5054C01232370FFF734FC10B9FFF728
:10270000E7FF2070207810BD84040020FFF7E0BFB1
:1027100008B5084611461A464FF0FF33FFF7D4FBC1
:1027200020B9FFF7F1FB0028FBD108BD0120FCE731
:1027300010B5124B1878C30788B014461BD4032970
:1027400003D8DFE801F010050B12042008B010BD1B
:102750006846FFF7E3FB069A226004E06846FFF74D
:10276000DDFB079B23800020F0E76846FFF7D6FBE0
:1027700007994A0AF0E70320E8E700BF8404002035
:1027800008B5084611461A464FF0FF33FFF7ACFB79
:1027900020B9FFF7B9FB0028FBD108BD0120FCE7F9
:1027A00082B00C4B002100915A6C42F48040586476
:1027B0005A6C02F480400090009A0191196C41F02B
:1027C00080521A641B6C03F080500190019B02B090
:1027D000704700BF00380240F0B5044689B01422AB
:1027E000002103A800F026FB2268234B9A4241D126
:1027F00003F5863000240094416C41F40065456483
:10280000466C06F400670097009A0194026B42F050
:1028100004030363016B01F004050195019A02941E
:10282000066B46F008070763006B0C2500F00802F2
:1028300002924FF4F85C022703260DEB05010F48C6
:10284000029BCDE903C7CDE9066503F043FD0423F0
:102850000DEB05010A480795CDE90337CDE905469B
:1028600003F038FD31202246214603F04DFA312095
:1028700003F07EFA09B0F0BD002C014000080240D0
:10288000000C024008B502680B4B9A4212D10B486B
:10289000416C21F4006242644FF4F851084803F09F
:1028A000F7FD0848042103F0F3FD3120BDE808409E
:1028B00003F06ABA08BD00BF002C01400038024096
:1028C00000080240000C024010B5044688B01422F3
:1028D000002103A800F0AEFA2268154B9A4225D1D8
:1028E00003F5943000210191446C44F010024264DD
:1028F000436C03F010040194019A0291016B41F0C2
:1029000001020263006B00F0010302210320029325
:102910004FF4C0640122029BCDE90341CDE90520BB
:10292000072303A90348079303F0D4FC08B010BDA4
:102930000010014000000240F0B587B014220021D1
:1029400001A800F077FA154B1C6824BB14480094CA
:1029500001221A60816B41F001058563866B114885
:1029600006F0010700974FF6807C022703260C250E
:1029700001A9009BCDE901C7CDE9046503F0AAFCDC
:102980004DF2B37301A908480595CDE90137CDE9AA
:10299000034603F09FFC07B0F0BD00BF74070020A2
:1029A0000038024000100240000C02407047000056
:1029B0002DE9F84FD0E900BAD0E90476D0E90298C1
:1029C000D0E90654204800F059FB59461F4800F052
:1029D000E1FA51461E4800F0DDFA49461D4800F074
:1029E000D9FA41461C4800F0D5FA39461B481C4F1D
:1029F00000F0D0FA31461B481B4E00F0CBFA2946B6
:102A00001A4800F0C7FA2146194800F0C3FA194BDA
:102A10001948196800F0BEFA18480168184800F013
:102A2000B9FA18491848096800F0B4FA174A184862
:102A3000116800F0AFFA3968164800F0ABFA716A15
:102A4000154800F0A7FAFEE7908A0008BD8A000842
:102A5000C78A0008D18A0008DB8A0008E58A0008D6
:102A60003CED00E0F08A000800ED00E0208B00085B
:102A7000418B000838ED00E04C8B000828ED00E0A9
:102A8000588B00082CED00E0648B000830ED00E06E
:102A9000708B00087C8B0008888B00081EF0040FE8
:102AA0000CBFEFF30880EFF30980FFF781BF04202C
:102AB0005FEA0E01084202D0EFF3098001E0EFF374
:102AC0000880416900BE7047FEE7FEE7FEE77047F9
:102AD0007047704703F0E0B810B5084C084805F09F
:102AE00009F90121204603F069FDB0FA80F252098C
:102AF00020460121BDE8104003F066BD00040240FD
:102B00002C4D0020014804F0B1BC00BFA84D0020AE
:102B1000014804F091BD00BFAC070020014803F05C
:102B200069B900BF2C4E0020014803F063B900BF13
:102B30008C4E002070B50E4615460C46A31B9D42D8
:102B400001DC284670BDAFF3008004F8010BF5E707
:102B500008B50A4B1968024609B90948186018688F
:102B6000EC460244624506D900F02CF80C220260C3
:102B70004FF0FF3008BD1A60FCE700BF7C07002063
:102B8000144F00204FF0FF3070474FF400534B605C
:102B9000002070470120704700207047024B4FF023
:102BA00000629A60704700BF00ED00E010B54FF082
:102BB000FF331446024892B205F004F8204610BDD7
:102BC0002C4D0020014B1868704700BF9004002076
:102BD00070B50D4E0D4CA41BA4100025A54209D1C3
:102BE0000B4E0C4C05F0F8FCA41BA4100025A542CC
:102BF00005D170BD56F8253098470135EEE756F8F7
:102C0000253098470135F2E79C9000089C90000819
:102C10009C900008A090000838B5074B1C68E36B37
:102C200005461BB9242000F0F5F8E063E16B284667
:102C3000BDE8384000F002B8900400202DE9F041D2
:102C40000C46804601F030FD21460746404601F023
:102C50002FFD466906F26C76B207044605D1642260
:102C600096FBF2F302FB136313BB4FF4C87396FB9E
:102C7000F3F503FB1565B5FA85F56D09634B302255
:102C800002FB053501F008F901F008F9604B1B68FB
:102C900023B37B68B3420DD13E68D8E90001D7E980
:102CA00008237EB9904271EB03030FDB012315E08B
:102CB0000125E3E7304601F047F80028ECD14FF05A
:102CC000FF330BE0904271EB030358DBD7E912238B
:102CD000904271EB0303B4BF012300232362236AF4
:102CE000012B0CBF396DB96A4FF461633C2091FB35
:102CF000F3F603FB1613616893FBF0F200FB12304E
:102D00002368891AA26861601B1A921B3B2B2360FF
:102D1000A26036DD013161603C3B236063683B2B80
:102D200035DD0132A2603C3B6360A368172B34DDC4
:102D3000E2690132E261A2690132062AC8BF0022BB
:102D4000A261E268183B0132A3602369E26055F892
:102D500023108A420EDD01330C2B0CBF6369236103
:102D6000A2EB0102E26001BF013300222261636134
:102D700008BFE26101F091F82046BDE8F081002330
:102D8000ACE7002BCADA013961603C33C5E7002BA0
:102D9000CBDA013AA2603C33C6E7002BEADAE269FB
:102DA000013AE261A269013A48BF0622A261E268E3
:102DB0001833013AE260A360002ADBD12369013BAA
:102DC00005D42361236955F82330E360D2E76269B3
:102DD0000B23511E23618B07616102F26B7205D1D7
:102DE000642192FBF1F301FB132363B94FF4C87123
:102DF00092FBF1F301FB1323B3FA83F35B0903F5B1
:102E0000B673E361DEE70123F9E700BFB88B000882
:102E1000A4070020024B0146186800F061B800BF0B
:102E200090040020024B0146186800F00BB800BF68
:102E30009004002002440346934200D1704703F8F7
:102E4000011BF9E738B50546002945D051F8043C87
:102E50000C1F002BB8BFE41801F064FD1F4A136873
:102E6000104633B9636014602846BDE8384001F06D
:102E70005ABDA3420CD921686218934204BF1A6854
:102E80005B68636004BF521822600460ECE713467D
:102E90005A680AB1A242FAD919685818A0420BD14F
:102EA00020680144581882421960DDD110685268C8
:102EB0005A6001441960D7E702D90C232B60D3E78D
:102EC000206821188A4204BF11685268626004BFFA
:102ED000091821605C60C7E738BD00BF800700208B
:102EE00070B5CD1C25F0030508350C2D38BF0C2519
:102EF000002D064601DBA94203D90C2333600020D4
:102F000070BD01F00FFD214A1468214691B9204C93
:102F100023681BB9304600F0B9F8206029463046D6
:102F200000F0B4F8431C24D10C233360304601F088
:102F3000FAFCE4E70B685B1B18D40B2B0FD90B6072
:102F4000CD50CC18304601F0EEFC04F10B00231DEF
:102F500020F00700C31AD3D05A42E250D0E78C4287
:102F60004B6816BF636013600C46EBE70C4649687C
:102F7000CCE7C41C24F00304A04205D0211A30463B
:102F800000F084F80130CFD02560DBE78007002017
:102F9000840700200FB40A4B13B51C6824B1A36941
:102FA00013B9204601F0B2FA05AB049AA168019367
:102FB000204601F031FE02B0BDE8104004B0704779
:102FC0009004002070B50E46054618B183690BB910
:102FD00001F09CFAAB69AC6813B9284601F096FA87
:102FE000234B9C4217D16C68A3891B071DD523690D
:102FF000DBB1013EA36816F8011F013BA360E9B9EC
:10300000002B2EDA22460A21284601F0CBF80130A7
:1030100011D00A2011E0174B9C4201D1AC68E3E7C4
:10302000154B9C4208BFEC68DEE72146284601F0BC
:103030000BF90028DDD04FF0FF3070BD002B04DA13
:10304000A2699A4206DC0A2904D023685A1C22602D
:103050001970CFE72246284601F0A4F80130C9D103
:10306000E9E723680A205A1C22601870E5E700BFD0
:10307000F88E0008188F0008D88E0008024B014611
:103080001868FFF79FBF00BF9004002038B5064CBA
:103090000023054608462360FFF75AFD431C02D172
:1030A000236803B12B6038BDEC4E00200CB430B562
:1030B000174B0C1E9DB01D6808DA8B232B604FF058
:1030C000FF301DB0BDE8304002B070474FF40273CE
:1030D000ADF8143014BF04F1FF3323460493079373
:1030E0004FF6FF7302900690ADF81630209A21AB90
:1030F00002A92846019301F071FC431CBCBF8B233D
:103100002B60002CDDD0029B00221A70D9E700BF93
:10311000900400204269002A40F26C73A8BF6FF04F
:1031200063031A44930705D1642192FBF1F301FB79
:103130001323D3B94FF4C87192FBF1F301FB1323AE
:10314000B3FA83F25209D0E906315B0003EB0113B5
:103150001344212B11DC202B30DA0D2B07DC0A2B3A
:103160002CDA012B2AD9002070470122EBE7102B23
:10317000F9DB112B22DD1C3BF3E741F2C6629342DF
:103180000FDC41F2C262934209DA41F2A262934239
:1031900005D0E8DBA3F5B553123B022BE3D80120A1
:1031A000704741F2D5629342F9D041F2D76293421F
:1031B000F5D041F2D3629342D5D1F0E74FF0FF3022
:1031C000704700002DE9F04F91B01D4600230746DF
:1031D0000E4603931C4601F1FF3B1378002B00F0D1
:1031E000E384252B1FD192F801A0BAF1300F23D030
:1031F000BAF12B0F20D002F101084FF0000A98F825
:103200000030313B082B1AD840460A2208A900F0AA
:1032100085FDDDF82080814698F80030452B11D1DE
:1032200008F1010810E0A34502D8002400F0BFBC5B
:103230003B5501320134D0E702F10208DFE74FF0DD
:103240000009E9E74F2BEBD098F80010A1F1250316
:10325000552BEAD801A252F823F000BF9F3B00088B
:103260002B3200082B3200082B3200082B320008CA
:103270002B3200082B3200082B3200082B320008BA
:103280002B3200082B3200082B3200082B320008AA
:103290002B3200082B3200082B3200082B3200089A
:1032A0002B3200082B3200082B3200082B3200088A
:1032B0002B3200082B3200082B3200082B3200087A
:1032C0002B3200082B3200082B320008F1330008A3
:1032D00045340008B53400084F3500082B3200088B
:1032E0009D3500088D360008A5370008B337000863
:1032F0002B3200082B3200082B320008E33700087D
:103300002B3200082B320008F53700082B3200085A
:10331000533800086B39000879390008C9390008AA
:10332000D93900084B3A0008AD340008853A000846
:103330004B3B00082B3200082B3200082B320008D0
:103340002B3200082B3200082B320008B53300085E
:103350001D3400086F3400082B3500082B35000899
:103360002B320008F53500081D3400082B32000808
:10337000D5370008A5370008B3370008DD37000847
:10338000E73700082B320008F53700082B32000819
:103390009D340008653800086F390008B13900080D
:1033A0002B3200083F3A0008A5340008633A0008B1
:1033B000D93A0008AB69A84A183352F82390484616
:1033C000FCF710FFA9EB04092044A04208D10446F1
:1033D00098F80030002B00F0E78308F10102FCE6CA
:1033E000A3457FF622AF19F804303B550134ECE7D2
:1033F000AA69994B03EB8203D3F87C904846FCF70B
:10340000F1FEA9EB04092044A042E0D0A3457FF6D9
:103410000CAF19F804303B550134F5E72A698E4B9F
:1034200053F822904846FCF7DDFEA9EB040920443E
:10343000A042CCD0A3457FF6F8AE19F804303B5536
:103440000134F5E72B69844A0C3352F8239048463F
:10345000FCF7C8FEA9EB04092044A042B7D0A3455D
:103460007FF6E3AE19F804303B550134F5E77A4BAB
:10347000D3F8A0904846FCF7B5FE99F80030002B31
:10348000A6D01A9B00934A462B46311B3819FFF7EA
:1034900099FE00287FF7C9AE044499E76E4BD3F834
:1034A000E490E7E76C4BD3F89C90E3E76A4BD3F8E2
:1034B0009890DFE7694B69699942ACBF002301230B
:1034C0000029049310DB642091FBF0F01330BAF173
:1034D000000F13D0632826DD614A624BBAF12B0F2F
:1034E00018BF1346604A0BE001F26C70059100F0C2
:1034F00019FF6423059990FBF3F0E8E7584B5B4A0A
:1035000001900498DFF854C1B9F1020F2CBFC0EB51
:103510000900C0F10200009055486145B8BF03465C
:10352000311B381929E04E4BDCE75248524AEB6810
:10353000642918BF0246311B3819FFF7B7FD002870
:10354000FFF673AE0444A6423FF642AF6DE66869EB
:103550002B69EA68002807EB0409A6EB040A03F1CB
:1035600001030DDB4FF0640C90FBFCF10CFB110030
:10357000CDE90020414A51464846FFF797FDDEE776
:1035800000F26C70CDE9043200F0CCFE6421DDE97C
:10359000043290FBF1FC0CFB1100E9E725238DF8C8
:1035A0002030BAF1000F13D0B9F1060F8DF821A029
:1035B00038BF4FF00609B9F106030FD10DF1220013
:1035C0002F4901F034FE1A9B009308AA2B465CE7B2
:1035D0002B238DF821304FF00A09ECE7294A1E21F0
:1035E0000DF12200FFF762FD0028E7DD0DF1220357
:1035F0001844E5E72846FFF78DFD814668690028F5
:103600001ADB642290FBF2F3B9F1000F02FB130006
:103610001ADA6A691C4B9A42B8BF4FF00109642359
:10362000814499FBF3F003FB1099994499FBF3F261
:1036300003FB1293104A7EE700F26C7000F072FEFA
:10364000642390FBF3F2DFE7E9D06A69034B9A4207
:10365000B8BF4FF0FF39E2E7748C000894F8FFFF21
:1036600070880008278C00081F8C0008188C000840
:1036700089900008298C0008378C00082D8C0008E0
:10368000408C00083C8C000895F8FFFF6B690493A0
:10369000049ABD4B9A42ACBF0023012328460593F0
:1036A000FFF738FD049A002A03463ADB64220499A6
:1036B00091FBF2F21332686900283DDB4FF0640C95
:1036C00090FBFCFE0CFB1E00002B44DADFF8DCC292
:1036D0006969614501DA012305930344591C46D108
:1036E000013A6323642000FB0232059B002B43D088
:1036F0002D238DF82030B9F1000F01D009F1FF39E9
:103700000DF1210325211970BAF1000F44D1581C85
:103710009E49049201F08BFD049A00924B4608AA40
:103720009BE0049B069003F26C7000F0FBFD6422AA
:10373000069B90FBF2F2BEE700F26C70CDE9063218
:1037400000F0F0FD4FF0640CDDE9063290FBFCFE6A
:103750000EFB1C00B8E7C0D00499DFF82CC261450D
:10376000AEBF002101214FF0FF330591B5E7642B77
:1037700004BF01320023B5E7BAF12B0F10D142F29A
:103780000F739A420CD98DF820A0B9F1000FB5D172
:1037900010AB252103F81F1D3021981C5970B7E785
:1037A00008ABAFE77A487B4AAB686B2918BF024683
:1037B000C1E6AB680C225BB1934203D093FBF2F0FD
:1037C00002FB10337348724A492918BF0246B2E619
:1037D0001346F7E7EB69704A0133ACE62B69013316
:1037E00028E76B6826E7A3457FF61FAD0A233B5504
:1037F0000134EDE5AB680B2BCCBFA422A022674BB4
:103800001344D3F804904846FCF7ECFCA9EB0403FE
:1038100004EB000AA24501D15446D9E5A3457FF641
:1038200004AD98F8002013F80490502A0DD10493A9
:1038300000F0F4FF4844049B427802F00302012A9E
:1038400008BF09F120095FFA89F907F804900134EB
:10385000E0E76B680093524AAB68311B3819FFF7F9
:1038600025FC6CE62B6A002B7CDB00F015FB039B30
:103870000BB900F013FB00F017FF2B6A002BCCBF35
:1038800050232823C3585B42049300F006FB012316
:103890000393D5F814C03B196246BCF1450005936B
:1038A0004FEAE27343F1FF31002871F1000E03DAB1
:1038B000BCF1420043F1FF31830843EA817399462A
:1038C0000CF1FF308B10642190FBF1F1B9EB010298
:1038D00063EBE1730CF22B104FF4C87190FBF1F124
:1038E00012EB010943EBE17AACF1460C40F26D11A9
:1038F00001FB0CFCE96919EB0C024AEBEC7312EBCF
:1039000001094FF0180C43EBE17AA9FB0C2319468F
:103910000CFB0A131946AB6810464FF03C0CC0185C
:1039200041EBE371A0FB0C230CFB0133696891466A
:1039300019EB010243EBE173A2FB0C010CFB031139
:103940002B68184A10EB030941EBE37A049BB9EBAF
:1039500003006AEBE371CDE90001311B3819FFF771
:10396000A5FBECE50023049393E72B6862E6A345EF
:103970007FF65BAC09233AE72B6801936B680093F1
:10398000094AAB68CCE500BF94F8FFFF488C0008FB
:10399000378C0008298C00084C8C0008748C0008B7
:1039A0005B8C0008518C0008568C000895F8FFFFCE
:1039B000A3457FF63AACAB693A19013413B9372302
:1039C000137005E53033FBE7EB69AA6907339B1AEF
:1039D000072293FBF2F32DE62846FFF79BFBAA692B
:1039E00032B1013A002828DCEB6903D10A33EEE753
:1039F0000622F7E768690028A2EB030340F26B7226
:103A0000A8BF6FF064021044820705D1642290FBC6
:103A1000F2F102FB110171B94FF4C87190FBF1F2A0
:103A200001FB1202B2FA82F252099A1A042ACCBF9E
:103A300034233523FEE50122F7E70123FAE5A34508
:103A40007FF6F3ABAB693033D1E6AB693BB1013BF9
:103A5000EA690732D21A072392FBF3F3EAE5062359
:103A6000F6E76869002805DB642290FBF2F302FBAD
:103A70001303DFE500F26C7000F054FC642390FB4C
:103A8000F3F2F4E76B69524A934218DA2D218DF86C
:103A90002010D31AB9F1000F01D009F1FF390DF14F
:103AA000210225211170BAF1000F40F08880501CCE
:103AB0004849049301F0BBFB049B00932EE6BAF146
:103AC0002B0F03F26C7340F0818042F20F7293422D
:103AD00079D98DF820A0DDE72B6A002BFFF678ACB2
:103AE00000F0DAF9039B0BB900F0D8F900F0DCFD27
:103AF0002B6A002BCCBF5023282307EB040AC358A2
:103B0000C3F1000900F0C9F93C23311B99FBF3F024
:103B10000491039300F07AFE039B90FBF3F202FB07
:103B2000130000904FF461632B4A99FBF3F304995F
:103B30005046FFF7BBFA0028FFF677AB0444A642D5
:103B40007FF673AB0123039342E42B6A002BFFF64D
:103B50003FAC00F0A1F9039B0BB900F09FF92B6A71
:103B60001E4A002BD4BF0023012352F8239048465D
:103B7000FCF738FBA9EB040904EB000AA24503D1CA
:103B800000F08BF95446DDE7A34504D919F8043059
:103B90003B550134F2E700F080F9FFF746BBA3453F
:103BA0007FF643AB252322E60EB100233B5520468A
:103BB00011B0BDE8F08F25228DF8202008AA302111
:103BC000901C517074E7B9F1000FF4D108AA68E7AE
:103BD00094F8FFFF488C0008658C0008F40400206E
:103BE00037B5064C064D2468246A002C08BF2C46C5
:103BF0000094FFF7E7FA03B030BD00BF9004002047
:103C0000580500202DE9F0478046894692461E4619
:103C10000F463D46089815F8014B00F0FBFD204487
:103C2000437813F0080330D12D2C30D17C78BD1CA3
:103C30000121002E5CD0102E09D1302C07D12B7819
:103C400003F0DF03582B4ED16C78102602354FF06D
:103C5000FF320023B2FBF6F206FB02FC6FEA0C0C0B
:103C60001846A4F13007092F17D83C46A64223DD99
:103C7000002B1EDB82421CD301D1A44519DB00FBC3
:103C80000640012315F8014BEBE72F46C1E72B2C2B
:103C900004BFBD1C7C781946CBE7A4F14107192F5E
:103CA00001D8373CE2E7A4F16107192F04D8573C4B
:103CB000DCE74FF0FF33E5E7002B09DA2223C8F8F1
:103CC00000304FF0FF30BAF1000F07D1BDE8F087A8
:103CD00001B14042BAF1000FF8D00BB105F1FF3944
:103CE000CAF80090F2E73024002EB0D10826AEE7E3
:103CF000302CA4D00A26AAE737B5064C064D246816
:103D0000246A002C08BF2C460094FFF77BFF03B009
:103D100030BD00BF9004002058050020084B37B587
:103D20001C68084D236A002B08BF2B4600931346DE
:103D30000A4601462046FFF765FF03B030BD00BFCD
:103D400090040020580500202DE9F74F804600F030
:103D5000ABFC40F2B173984540F398806FF4F66382
:103D600043449B1040F26D12A8F2B27502FB053578
:103D70006FF06302A8F26D7393FBF2F31D444FF4EE
:103D8000C8736FF4C86298FBF3F703FB17874244CC
:103D9000B7FA87FC92FBF3F208F0030315446422A0
:103DA000C0F8048098FBF2F64FEA5C1C02FB168612
:103DB000044600F1500B00934FF0070E227A63691E
:103DC0004A2A28D10099EA1801B906B90FBB3B2B42
:103DD000D4BF0023012313445A1EA3692C4901FBBD
:103DE0000232A36A13441A46DB17C4E908232834B5
:103DF000A345E3D1D0E90845D0E91223944275EBFD
:103E00000303B4BF012300230360012003B0BDE816
:103E1000F08F0023DFE7442A01D1EA18DDE7009A9A
:103E200072BB002E0CBFE1464FF00109302202FBAD
:103E300009F9E26801924FF000082A4608F10108EA
:103E4000144909EB880A8A4401995AF804AC41459F
:103E500018DC02F1040898FBFEF9C9EBC909A8EBCC
:103E60000909B3EB0909236903F1FF3348BF09F1DD
:103E70000709C3EBC3034B44534505DA1A44ACE7C7
:103E8000E146D3E75244D9E7073BF5E70020BDE719
:103E900080510100B88B000870477047014B1868CB
:103EA00000F002B8900400202DE9F04F8DB00746D5
:103EB00000F0FAFBAF49B04E0546384600F0ECFB87
:103EC000044670B9AD4BAE4A1860AE4B1860AE4BAD
:103ED0003068C3E90022FEF7A5FF34600DB0BDE8ED
:103EE000F08F316800295FD13068FEF79BFF2046D4
:103EF000FCF778F9411C3846FEF7F2FF30600028E5
:103F000057D12378A14AA2493A2B08BF01340AAEFF
:103F10003346204601F01CF90028DFDD0A9BE71834
:103F2000E35C2D2B49D101374FF0FF340DF1200A0E
:103F30000DF11E0B4FF000080396CDE9016ACDF894
:103F400000B0334607AA9349ADF81E803846ADF855
:103F5000208001F0FDF84045C0DDBDF81E30BDF801
:103F60002020DFF83C923C2101FB0322BDF81C30ED
:103F70004FF4616101FB03235C43AC62824C834BD1
:103F800023600A9B82491F444A463346384601F063
:103F9000DFF8404516DC23686360784BAA6A1A6034
:103FA000784BC3F8008099E7FCF712F9002895D008
:103FB0009AE7214601F03BF9A3E72B2B08BF013715
:103FC0000124B3E70A9BC4F80490FC18FB5C2D2B7A
:103FD00040F08B8001344FF0FF370023ADF81C30E8
:103FE000ADF81E30ADF820300A93CDE902A6CDE938
:103FF00000B6334607AA6749204601F0A9F8002811
:1040000078DCAB6AA3F561632B650A9B2F461C44E1
:104010004FF0000923782C2B08BF013494F800805E
:10402000B8F14D0F79D10DF12603CDE9016309AB4C
:104030000093039633460DF122025749204601F0C2
:1040400087F803287FF44AAFBDF822104B1E0B2BD4
:104050003FF644AFBDF82420531E042B3FF63EAF7D
:10406000BDF82630062B3FF639AFC7E9031287F8B3
:1040700008807B610A9B04EB03080223ADF81C3027
:104080000023ADF81E30ADF820300A9398F80030C8
:104090002F2B09D1CDE902A6CDE900B6334607AAF8
:1040A0003E49404601F054F8BDF81E30BDF82020CE
:1040B0003C2101FB0322BDF81C304FF4616101FB80
:1040C0000323BB610A9C28374444B9F1000F21D077
:1040D0006868FFF739FE294BAA6A1A602B6D9B1A94
:1040E000284A18BF01231360F8E62B2B08BF0134C0
:1040F000012772E7BDF81E30BDF820203C2101FBEE
:104100000322BDF81C304FF4616101FB03235F43C0
:104110002F657AE74FF001097CE7B8F14A0F06BF37
:104120000134434644230A220BA920460593FFF796
:10413000F5FDDDF82C80ADF82600A045059B14D1D7
:104140004D23B9F1000F07D12B7203210223C5E9DA
:104150000313C5F8149090E785F830300B22012343
:10416000C5E90D230023EB6387E780B23B727861DA
:1041700083E700BF9B8E0008A0070020A80700204F
:104180009E8E0008A4070020F4040020930700205E
:10419000A28E0008C58E0008B18E0008C48E0008EB
:1041A00088070020F8B50E461446054618B1836905
:1041B0000BB900F0ABF9214B9C422AD16C68A36982
:1041C000A360A3891A072ED5236963B323692068E6
:1041D000C01A6369F6B28342374604DC214628469A
:1041E00000F02AF928BBA368013BA36023685A1C8E
:1041F00022601E7063690130834204D0A389DB070B
:1042000019D50A2E17D12146284600F015F990B18C
:104210000FE00B4B9C4201D1AC68D0E7094B9C42AC
:1042200008BFEC68CBE72146284600F00DF80028CF
:10423000CCD04FF0FF373846F8BD00BFF88E0008ED
:10424000188F0008D88E0008324B70B51D680646DE
:104250000C4625B1AB6913B9284600F057F92E4B2F
:104260009C420FD16C68B4F90C309AB215072CD46B
:10427000D00611D40922326043F04003A3814FF0ED
:10428000FF303EE0254B9C4201D1AC68EBE7244B6C
:104290009C4208BFEC68E6E7510712D5616B41B15B
:1042A00004F14403994202D03046FEF7CBFD0023CF
:1042B0006363A38923F02403A3810023636023693C
:1042C0002360A38943F00803A38123694BB9A38921
:1042D00003F42073B3F5007F03D02146304600F08D
:1042E000CFFAA28912F001030CD00023A360636906
:1042F0005B42A361236953B9B4F90C3013F0800019
:10430000BAD170BD920758BF6369A360F2E700207D
:10431000F7E700BF90040020F88E0008188F00080F
:10432000D88E00080028B8BF404270478A892DE91E
:10433000F041054610070C4658D44B68002B05DCAD
:104340000B6C002B02DC0020BDE8F081E66A002E39
:10435000F9D0002312F480522F68216A2B6032D0EA
:10436000606DA3895A0705D56368C01A636B0BB1EA
:10437000236CC01A00230246E66A216A2846B04729
:10438000431CA38906D129681D2948D8294ACA4057
:10439000D60744D500226260D9042269226004D580
:1043A000421C01D12B6803B96065616B2F60002945
:1043B000C9D004F14403994202D02846FEF742FDD9
:1043C00000206063C0E701232846B047411CC8D1E4
:1043D0002B68002BC5D01D2B01D0162B01D12F60CF
:1043E000B1E7A38943F04003A381ADE70F69002F34
:1043F000A9D093070E6808BF4B690F6018BF002350
:10440000A6EB07088B60B8F1000F9CDD43463A46E7
:10441000216AA66A2846B047002806DCA38943F033
:104420004003A3814FF0FF308EE70744A8EB00085C
:10443000E9E700BF0100402038B50B6905460C468E
:10444000DBB118B183690BB900F060F80C4B9C42EA
:1044500009D16C68B4F90C307BB121462846BDE81F
:104460003840FFF763BF074B9C4201D1AC68F1E7CE
:10447000054B9C4208BFEC68ECE7002038BD00BF4C
:10448000F88E0008188F0008D88E0008002310B599
:104490000446C0E90033836081814366C281C0E97C
:1044A00004338361194608225C30FEF7C3FC054BD8
:1044B0006362054BA362054BE362054B24622363F1
:1044C00010BD00BFA5510008CB51000803520008E1
:1044D00027520008014900F085B800BF39440008A0
:1044E00070B54A1E682555430E4605F17401FEF766
:1044F000F7FC044640B10021C0E900160C30A06072
:1045000005F16802FEF796FC204670BD836910B580
:10451000044633BBC0E912330365124B124A1B68D1
:104520008262984204BF0123836100F01FF860603B
:10453000204600F01BF8A060204600F017F800228B
:10454000E06004216068FFF7A1FF01220921A06853
:10455000FFF79CFF02221221E068FFF797FF01237B
:10456000A36110BDB48B0008D5440008F8B51B4BFF
:104570001E68B369074613B93046FFF7C7FF4836D0
:10458000D6E90134013B03D5336833B13668F7E728
:10459000B4F90C506DB16834F4E704213846FFF7E4
:1045A0009FFF30600028F1D10C233B600446204679
:1045B000F8BD0B4B6566C4E90055A560C4E9033539
:1045C000C4E905550822294604F15C00FEF732FCD7
:1045D000C4E90D55C4E91255E9E700BFB48B0008E2
:1045E0000100FFFF2DE9F8438046894600F14804A9
:1045F000002614B93046BDE8F883D4E90175013FBF
:1046000001D52468F5E7AB89012B07D9B5F90E3040
:10461000013303D029464046C84706436835EEE7D4
:104620002DE9F84F07468B46904600F049FE194B9E
:104630001D689A463DB15C46234613F8012B2AB308
:104640003D2A1C46F8D1384600F03BFE0020BDE86C
:10465000F88F4D46A94659F8040B0028F3D022469E
:10466000594600F0ECFD0028F3D159F8043C1E191E
:104670001B5D3D2BEDD1DAF80030ED1AAD10384658
:10468000C8F8005000F01DFE701CE0E7A4EB0B041E
:10469000E0E700BF8804002007B501AAFFF7C0FFCC
:1046A00003B05DF804FB00000048704700050020DF
:1046B0002DE9F843D0E900890C46504A00234046D2
:1046C0004946FBF7EDFD4D4A00F52F2600234046F5
:1046D0004946FBF7E5FD002ABCBF02F5A83202F50A
:1046E000C0724FF4616192FBF1F301FB13224FF0B2
:1046F0003C0106F66C25A360B8BF06F66B2592FB5D
:10470000F1F301FB132263602260EB1C072293FB91
:10471000F2F2C2EBC2029B1A48BF0733002DA3611D
:10472000B8BFA5F50E333648AEBF95FBF0F0A3F544
:104730002C7393FBF0F0334B03FB005348F6AC6152
:10474000B3FBF1F1194440F2B457B3FBF7F2891A05
:104750002D4AB3FBF2F28A1A48F69461B2FBF1F1EA
:104760000B4440F26D16B2FBF6F5B2FBF7F29A1A63
:1047700006FB1523992103EB83025E1C0232B2FB78
:10478000F1F20A2A01FB02F101F102014FF00507E3
:10479000B1FBF7F1A6EB010134BF02266FF0090669
:1047A00016444FF4C87202FB0050012E98BF01302E
:1047B000B3F5997F0CD3A3F59973E361A0F26C7004
:1047C0000023C4E90460E16023622046BDE8F88369
:1047D000AA0705D16427B5FBF7F207FB12525AB9B5
:1047E0004FF4C877B5FBF7F207FB1252B2FA82F228
:1047F00052093B331344E0E70122FAE780510100FC
:10480000B13A02004FC5FDFFB03A02000028B8BF20
:1048100040427047D0F8EC0070470000044B054A56
:104820001B681B6A002B08BF1346D3F8EC007047C7
:10483000900400205805002070B50E46B1F90E1006
:10484000002996B014461D4607DA00232B60B38971
:104850001A0610D44FF480630EE06A4600F032FD71
:104860000028F2DB019A02F47042A2F500535A428A
:104870005A412A60EEE740230020236016B070BD45
:104880008B8973B59D0706460C4607D504F147038F
:10489000236023610123636102B070BD01AB6A46EE
:1048A000FFF7CAFF009905463046FEF719FB48B9E5
:1048B000B4F90C309A05EFD423F0030343F002035C
:1048C000A381E3E70D4BB362A389206043F080032B
:1048D000A381009B6361019B20615BB1B4F90E1061
:1048E000304600F001FD28B1A38923F0030343F013
:1048F0000103A381A3891D43A581CDE7D544000809
:1049000082B001B901A942B14BB113780B601278A2
:10491000101C18BF012002B070471046FBE76FF073
:104920000100F8E7704770472DE9F0478E689E4216
:1049300082460C469046994637D88A8912F4906F81
:1049400031D0256809696F1A6569022305EB4505B1
:1049500095FBF3F509F101033B449D4238BF1D4629
:10496000530530D52946FEF7BBFA064650B90C234D
:10497000CAF80030A38943F04003A3814FF0FF3011
:10498000BDE8F0873A46216900F0D0FCA38923F402
:10499000906343F08003A381266165613E44ED1B73
:1049A0002660A5604E464E4500D94E4632464146E9
:1049B000206800F0C6FCA3689B1BA36023681E440C
:1049C00026600020DCE72A4600F0D4FC06460028DA
:1049D000E2D121695046FEF735FAC8E72DE9F04FDC
:1049E0009DB0804603938B891D060C4616460FD555
:1049F0000B696BB94021FEF773FA2060206128B97A
:104A00000C23C8F800304FF0FF30C7E0402363614B
:104A10000023099320238DF8293030238DF82A3084
:104A20004FF0010B37463D4615F8013B0BB1252BE6
:104A30003ED1B7EB060A0BD05346324621464046DC
:104A4000FFF772FF013000F0A480099B53440993E3
:104A50003B78002B00F09D8000234FF0FF32CDE922
:104A60000523049307938DF853301A932F4605229C
:104A700017F8011B4F48FBF7C3FB049BD0B9D906BD
:104A800044BF20228DF853201A0744BF2B228DF8F3
:104A900053202A782A2A15D0079A2F4600200A2563
:104AA000394611F8013B303B092B4DD9B8B10FE025
:104AB0002F46B8E73F4A801A0BFA00F018430490DB
:104AC0003D46D3E7039A111D12680391002A01DBCA
:104AD000079204E0524243F00203079204933B78AA
:104AE0002E2B0CD17B782A2B33D1039B1A1D1B68EC
:104AF0000392002BB8BF4FF0FF33023705932E4DC2
:104B0000397803222846FBF77BFB38B14023401B52
:104B100003FA00F0049B03430137049339782748D4
:104B20008DF8281006227E1CFBF76AFB002838D07F
:104B3000234B13BB039B073323F007030833039373
:104B4000099B4B4409936DE705FB023201200F4698
:104B5000A6E700230137059319460A25384610F8C1
:104B6000012B303A092A03D9002BC8D00591C6E79A
:104B700005FB012101230746F0E703AB0093224622
:104B8000104B04A94046AFF30080B0F1FF3F8146CF
:104B9000D6D1A3895B063FF536AF09981DB0BDE8B5
:104BA000F08F03AB00932246064B04A9404600F069
:104BB000BDF9EAE7428F0008488F00084C8F0008D3
:104BC00000000000294900089368013B002B10B445
:104BD000936007DA9469A34201DB0A2902D110BC71
:104BE000FFF7E0BA1368581C10601970084610BC33
:104BF0007047F8B506460F461446D518AC4201D1A9
:104C0000002007E03A4614F8011B3046FFF7DCFFAE
:104C1000431CF3D1F8BD00002DE9F04F9DB00C46C8
:104C200017460393064618B183690BB9FFF76EFC6C
:104C30007B4B9C4257D17468A38918075DD52369C3
:104C4000002B5AD00023099320238DF829303023DC
:104C50008DF82A304FF0010BB846454615F8013B58
:104C60000BB1252B54D1B8EB070A0BD053463A466B
:104C700021463046FFF7BDFF013000F0C280099B9E
:104C80005344099398F80030002B00F0BA800023B9
:104C90004FF0FF32CDE90523049307938DF853308D
:104CA0001A93A846052218F8011B5E48FBF7A8FADC
:104CB000049B78BBD90644BF20228DF853201A07E5
:104CC00044BF2B228DF853202A782A2A2AD0079A0B
:104CD000A84600200A25414611F8013B303B092B2C
:104CE00069D960B324E0504B9C4201D1B468A3E77A
:104CF0004E4B9C4208BFF4689EE721463046FFF7C2
:104D0000A3FA00289ED04FF0FF301DB0BDE8F08F11
:104D1000A846A2E7434A801A0BFA00F01843049011
:104D20004546BEE7039A111D12680391002A01DB74
:104D3000079204E0524243F002030792049398F86A
:104D400000302E2B0ED198F801302A2B38D1039B3E
:104D50001A1D1B680392002BB8BF4FF0FF3308F1F8
:104D600002080593324D98F8001003222846FBF7FD
:104D700047FA40B14023401B03FA00F0049B034371
:104D800008F10108049398F800102A488DF82810BB
:104D9000062208F10107FBF733FA002837D0264B2B
:104DA0001BBB039B073323F0070308330393099BC3
:104DB0004B44099350E705FB0232012088468AE7FD
:104DC000002308F10108059319460A25404610F80A
:104DD000012B303A092A03D9002BC3D00591C1E732
:104DE00005FB012101238046F0E703AB0093224637
:104DF000124B04A93046AFF30080B0F1FF3F81466B
:104E0000D5D1A3895B063FF57EAF09987DE703AB5B
:104E100000932246094B04A9304600F087F8ECE7DE
:104E2000F88E0008428F0008188F0008D88E0008FE
:104E3000488F00084C8F000800000000F34B00086A
:104E40002DE9F04791461F468A680B69DDF82080FE
:104E50009342B8BF1346C9F8003091F84320064684
:104E60000C4612B10133C9F800302368990642BFDD
:104E7000D9F800300233C9F80030256815F006056E
:104E800007D104F1190AE368D9F800209B1AAB4254
:104E900028DC94F843302268003318BF01239206BF
:104EA0002DD404F1430239463046C047013020D0AA
:104EB0002368E568D9F8002003F00603042B08BF37
:104EC000AD1AA36822690CBF25EAE5750025934257
:104ED000C4BF9B1AED184FF000091A344D451AD182
:104EE000002008E00123524639463046C0470130D1
:104EF00003D14FF0FF30BDE8F0870135C3E7E1187B
:104F00005A1C302081F84300224494F8451082F85E
:104F100043100233C5E70123224639463046C047D5
:104F20000130E6D009F10109D8E700002DE9F0438E
:104F300001F1430C0C46097E85B06E2917460646E2
:104F400098460C9A00F0B38022D8632936D00AD84C
:104F5000002900F0B980582900F0838004F142054F
:104F600084F8421032E0642901D06929F6D1206822
:104F70001368050603F104012AD51B681160002B94
:104F800003DA2D225B4284F843206F480A2239E07D
:104F9000732900F09D8008D86F2920D07029DDD1B9
:104FA000236843F02003236003E0752917D0782994
:104FB000D4D1782384F84530644855E01368191D2E
:104FC0001B68116004F1420584F8423001238CE033
:104FD0001B68116010F0400F18BF1BB2CFE71368B9
:104FE0002568181D1060280601D51B6802E06806B8
:104FF000FBD51B8854486F2914BF0A2208220021C0
:1050000084F843106568A560002DC0F29580216882
:1050100021F004012160002B3DD1002D40F08E8055
:105020006546082A0BD12368DB0708D52369626827
:105030009A42DEBF302305F8013C05F1FF35ACEBA9
:1050400005032361CDF800803B4603AA2146304684
:10505000FFF7F6FE01304DD14FF0FF3005B0BDE84F
:10506000F083394884F84510136821681D1D1B68BA
:1050700015600A060BD5CA0744BF41F02001216024
:105080001BB9226822F0200222601022B7E74D06E9
:1050900048BF9BB2EFE76546B3FBF2F102FB113369
:1050A000C35C05F8013D0B460029F5D1B9E713684B
:1050B00025686169181D106028061B6801D51960F4
:1050C00002E06A06FBD51980002323616546B9E733
:1050D0001368191D11601D68626800212846FBF7DE
:1050E0008FF808B1401B606063682361002384F877
:1050F0004330A7E723692A4639463046C047013086
:10510000AAD023689B0713D4E068039B9842B8BFDA
:105110001846A3E701234A4639463046C0470130C6
:105120009AD00135E368039A9B1AAB42F2DCEBE7B5
:10513000002504F11909F5E7002BACD1037884F8B8
:10514000423004F142056CE7538F0008648F000879
:105150000EB430B59CB01FAC4FF4017254F8045B30
:10516000ADF8142002900690FBF73CF80B4B03902F
:1051700007900B930A48019400230F9314934FF662
:10518000FF73ADF816302A46234602A9006800F0E6
:1051900071F91CB0BDE8304003B07047C75100083A
:1051A0009004002010B50C46B1F90E1000F00AFC76
:1051B0000028ABBF636DA3891B1823F48053ACBFD9
:1051C0006365A38110BD002070472DE9F0411F46A3
:1051D0008B89DB0505460C46164605D502230022C1
:1051E000B1F90E1000F090F8A389B4F90E1023F471
:1051F0008053A38132463B462846BDE8F04100F08B
:105200003DB810B50C46B1F90E1000F07DF8431C06
:10521000A38915BF606523F4805343F48053A381B1
:1052200018BFA38110BDB1F90E1000F039B80346C4
:1052300011F8012B03F8012B002AF9D1704710B5A2
:105240006AB10139841810F8013B11F8012F93421B
:1052500003D1A04201D0002BF5D1981A10BD104601
:10526000FCE749B1FF2A85BF8A2303600A704FF02B
:10527000FF3098BF012070470846704738B5074C8B
:10528000054608461146002222601A46FDF78EFCAC
:10529000431C02D1236803B12B6038BDEC4E0020C3
:1052A00038B5064C0023054608462360FDF76AFC26
:1052B000431C02D1236803B12B6038BDEC4E0020A3
:1052C0007047704738B5074C00230546084611461D
:1052D0002360FDF75AFC431C02D1236803B12B6005
:1052E00038BD00BFEC4E002038B5064C0023054603
:1052F00008462360FDF74EFC431C02D1236803B12E
:105300002B6038BDEC4E002038B5074C05460846EA
:105310001146002222601A46FDF73EFC431C02D1D2
:10532000236803B12B6038BDEC4E002010B5431E3E
:105330000A44914200D110BD11F8014B03F8014F0E
:10534000F7E7884210B501EB020307D8421E9942E5
:105350000AD011F8014B02F8014FF8E78342F5D962
:105360008118D21AD34200D110BD13F8014D01F8B3
:10537000014DF7E7F8B5074614460E4621B9114628
:10538000BDE8F840FDF7ACBD22B9FDF75BFD254651
:105390002846F8BD00F022FCA0420FD22146384634
:1053A000FDF79EFD05460028F2D031462246FFF764
:1053B000BDFF31463846FDF745FDE9E73546E7E7ED
:1053C00038B54B1C144603D14FF0FF35284638BD85
:1053D000938923F020039381636B5268CDB28BB124
:1053E000A36B934208DD23685A1E226003F8015C18
:1053F000636801336360E9E7214600F0B5FB0028EC
:10540000F1D0E1E72169236851B1994208D213F83C
:10541000011CA94204D1013B013223606260D5E73F
:10542000C4E90F3204F1440363630323A3632346F7
:1054300003F8465F23600123DCE710B50C46496B97
:1054400069B104F14403994201D0FDF7FBFC236CE0
:1054500063600020606313B1E36B236010BD2369B8
:10546000236000236360A38943F02003A3814FF0EE
:10547000FF30F3E72DE9F04FADF5257D0DF10C0878
:1054800001930023469347939E4BA293DFF87C92AF
:105490009D4BCDF8208106460C469246A3930A27E1
:1054A0009AF80030002B00F02A815546FFF7B6F934
:1054B00015F801BB5844437813F008031CD0636807
:1054C000002B12DDFFF7AAF923681A7810444278FE
:1054D000120701D4AA46E3E7479A0132479262686D
:1054E0000133013A62602360E9E7A39B214630461D
:1054F00098470028E6D0EDE7BBF1250F40F0828009
:10550000459343939AF801302A2B03D110234393F8
:105510000AF10205AA4615F8011BA1F13002092A79
:1055200022D903227948FAF76BFE38B1A0EB0903C0
:1055300001209840439B18434390AA469AF80030B4
:10554000672B0AF101052BD8652B80F09F80472B34
:1055500010D8452B80F09A80002B6CD0252B51D091
:1055600003234993449727E0459B07FB0313303BF4
:105570004593CFE75B2B6AD00CD8582BF0D1439AD8
:1055800042F400724392102244926E2B8CBF04238B
:10559000032310E0632B65D0642BE1D14497F4E73B
:1055A000702B4BD026D86E2B62D04CD8692BD7D11C
:1055B00000234493032349936368002B68DD439BD6
:1055C000590607D4FFF72AF923681A78104442785D
:1055D000120764D4499B022B73DC01AB224643A91A
:1055E000304600F097F8012800F0898002287FF407
:1055F00071AF1DE0752BD1D0782BC0D0732BAFD1FC
:105600000223D8E76368002B0CDD23681A785A451B
:1056100075D1013362682360479B013A01336260B0
:10562000479357E7A39B2146304698470028ECD084
:105630004698002859D14FF0FF305CE0439A42F081
:10564000200243929BE7082344930423B3E72946AF
:10565000404600F0C9F9439B43F04003439305469D
:105660000123A8E7439B43F0400343930023A2E7B1
:105670004398C3063FF52EAF019B479A191D019130
:105680001B68C0074CBF1A801A6023E7052392E706
:10569000A39B214630469847002890D0C8E7479AF8
:1056A000013247926268013A002A626002DD0133EA
:1056B000236087E7A39B214630469847002881D086
:1056C000B6E7042B06DC01AB224643A9304600F0C6
:1056D00085F888E70E4B002B3FF4FCAE01AB224669
:1056E00043A93046AFF300807DE7A38913F0400F54
:1056F00018BF4FF0FF300DF5257DBDE8F08F4698BF
:10570000F9E700BFC15300083B540008488F000868
:10571000000000002DE9F04115468A6880460C46DD
:1057200032B98A69002A14BF4FF0FF3201228A6021
:105730002268D1065FBF1A68111D1960176800261C
:10574000A369DBB1012B07D12B6862691B78D35C9D
:10575000A3B9002E32D106E0022B07D0002E2DD1A6
:10576000A369012B2AD10120BDE8F081FFF756F88B
:105770002B681B78184443781B07EFD42368DA069C
:105780005EBF2B681B783B702A686B6802F10102D0
:105790002A60A26803F1FF3302F1FF326B6006F169
:1057A000010658BF0137A26042B1002BC8DCD4F813
:1057B00080312946404698470028C1D0236813F01D
:1057C000100305D1E2680132E260A26902B13B70C8
:1057D00023691E4426610020C6E700002DE9F04F32
:1057E0009A46744B0C468346164693E8070087B0EA
:1057F00003ABA76883E807006F4BA1696F4A0329D1
:1058000008BF1A467B1EB3F5AE7F84BF40F25D131E
:10581000A3602368009243F4506388BF6FF4AE75B1
:1058200004F11C0923608CBF7F1900274B464FF001
:1058300000080193316803AB022253F8280009786D
:10584000FAF7DEFC019B30B3B8F1010F5AD1626860
:105850002AB92268082142F400726160226022683D
:1058600022F4A0622260A268511EA1609AB132683F
:10587000511C316012781A705D1C7368013B002B5B
:10588000736007DCD4F880313146584698470028C9
:1058900040F086802B4608F10108B8F1030FC8D10B
:1058A00062680AB90A2262606268454960690193C8
:1058B000891A00F099F8019B4FF000081D46A36873
:1058C0002268002B3AD03168606991F800C010F866
:1058D0000C00002832D0BCF1300F21D110051FD5AB
:1058E00008F1010817B10133013FA3607368013B60
:1058F000002B73601BDD336801333360A368013B09
:10590000A360DCE7B8F1020FADD1226802F4C061F8
:10591000B1F5007FBFD11021616042F48072A1E730
:1059200022F4106222600B782B700135DEE7D4F888
:1059300080313146584698470028DFD02368D90582
:105940000CD54D4508D915F8011CD4F87C313246E8
:10595000584698476F1E3D464D4529D0226812F0A3
:10596000100213D12A706368009E49465846B0471A
:10597000DAF8003021681A1DCAF8002011F0200F53
:105980001B6810D01860E3680133E360A5EB0905DC
:10599000A844256945442561002007B0BDE8F08F83
:1059A0004FF00008CAE7CA074CBF18801860EAE742
:1059B0000120F2E7F0850008455B0008F93C00088B
:1059C0008690000838B5074C054608461146002267
:1059D00022601A46FDF7AEF8431C02D1236803B1DA
:1059E0002B6038BDEC4E002070B50B785E2B13BFDA
:1059F0004A1C8A1C4B78002108BF0121441E00F17B
:105A0000FF0504F8011FAC42FBD113B9013A10465F
:105A100070BD81F00104C454511C11F8015C2D2D9E
:105A200001F1FF360A4606D05D2DF0D00DB93246A1
:105A3000EDE72B46EFE70E785D2EFAD0B342F8DCA7
:105A400001339E42C454FBDC0231E6E72DE9F04706
:105A50008046894692461E460F463D46089815F8F0
:105A6000014BFEF7D7FE2044437813F0080332D1F0
:105A70002D2C32D17C78BD1C0122002E5DD0102E41
:105A800009D1302C07D12B7803F0DF03582B4FD1ED
:105A90006C7810260235002A14BF4FF000416FF0D9
:105AA00000410027B1FBF6FC384606FB1C1EA4F1A2
:105AB0003003092B17D81C46A64223DD7B1C07D0D8
:105AC00084451CD301D1A64519DB00FB0640012704
:105AD00015F8014BEBE72F46BFE72B2C04BFBD1C8D
